{
  "_format": "hh-sol-artifact-1",
  "contractName": "TestUSDC",
  "sourceName": "contracts/TestUSDC.sol",
  "abi": [
    {
      "inputs": [],
      "stateMutability": "nonpayable",
      "type": "constructor"
    },
    {
      "inputs": [
        {
          "internalType": "address",
          "name": "spender",
          "type": "address"
        },
        {
          "internalType": "uint256",
          "name": "allowance",
          "type": "uint256"
        },
        {
          "internalType": "uint256",
          "name": "needed",
          "type": "uint256"
        }
      ],
      "name": "ERC20InsufficientAllowance",
      "type": "error"
    },
    {
      "inputs": [
        {
          "internalType": "address",
          "name": "sender",
          "type": "address"
        },
        {
          "internalType": "uint256",
          "name": "balance",
          "type": "uint256"
        },
        {
          "internalType": "uint256",
          "name": "needed",
          "type": "uint256"
        }
      ],
      "name": "ERC20InsufficientBalance",
      "type": "error"
    },
    {
      "inputs": [
        {
          "internalType": "address",
          "name": "approver",
          "type": "address"
        }
      ],
      "name": "ERC20InvalidApprover",
      "type": "error"
    },
    {
      "inputs": [
        {
          "internalType": "address",
          "name": "receiver",
          "type": "address"
        }
      ],
      "name": "ERC20InvalidReceiver",
      "type": "error"
    },
    {
      "inputs": [
        {
          "internalType": "address",
          "name": "sender",
          "type": "address"
        }
      ],
      "name": "ERC20InvalidSender",
      "type": "error"
    },
    {
      "inputs": [
        {
          "internalType": "address",
          "name": "spender",
          "type": "address"
        }
      ],
      "name": "ERC20InvalidSpender",
      "type": "error"
    },
    {
      "inputs": [
        {
          "internalType": "address",
          "name": "owner",
          "type": "address"
        }
      ],
      "name": "OwnableInvalidOwner",
      "type": "error"
    },
    {
      "inputs": [
        {
          "internalType": "address",
          "name": "account",
          "type": "address"
        }
      ],
      "name": "OwnableUnauthorizedAccount",
      "type": "error"
    },
    {
      "anonymous": false,
      "inputs": [
        {
          "indexed": true,
          "internalType": "address",
          "name": "owner",
          "type": "address"
        },
        {
          "indexed": true,
          "internalType": "address",
          "name": "spender",
          "type": "address"
        },
        {
          "indexed": false,
          "internalType": "uint256",
          "name": "value",
          "type": "uint256"
        }
      ],
      "name": "Approval",
      "type": "event"
    },
    {
      "anonymous": false,
      "inputs": [
        {
          "indexed": true,
          "internalType": "address",
          "name": "previousOwner",
          "type": "address"
        },
        {
          "indexed": true,
          "internalType": "address",
          "name": "newOwner",
          "type": "address"
        }
      ],
      "name": "OwnershipTransferred",
      "type": "event"
    },
    {
      "anonymous": false,
      "inputs": [
        {
          "indexed": true,
          "internalType": "address",
          "name": "from",
          "type": "address"
        },
        {
          "indexed": true,
          "internalType": "address",
          "name": "to",
          "type": "address"
        },
        {
          "indexed": false,
          "internalType": "uint256",
          "name": "value",
          "type": "uint256"
        }
      ],
      "name": "Transfer",
      "type": "event"
    },
    {
      "inputs": [
        {
          "internalType": "address",
          "name": "owner",
          "type": "address"
        },
        {
          "internalType": "address",
          "name": "spender",
          "type": "address"
        }
      ],
      "name": "allowance",
      "outputs": [
        {
          "internalType": "uint256",
          "name": "",
          "type": "uint256"
        }
      ],
      "stateMutability": "view",
      "type": "function"
    },
    {
      "inputs": [
        {
          "internalType": "address",
          "name": "spender",
          "type": "address"
        },
        {
          "internalType": "uint256",
          "name": "value",
          "type": "uint256"
        }
      ],
      "name": "approve",
      "outputs": [
        {
          "internalType": "bool",
          "name": "",
          "type": "bool"
        }
      ],
      "stateMutability": "nonpayable",
      "type": "function"
    },
    {
      "inputs": [
        {
          "internalType": "address",
          "name": "account",
          "type": "address"
        }
      ],
      "name": "balanceOf",
      "outputs": [
        {
          "internalType": "uint256",
          "name": "",
          "type": "uint256"
        }
      ],
      "stateMutability": "view",
      "type": "function"
    },
    {
      "inputs": [],
      "name": "decimals",
      "outputs": [
        {
          "internalType": "uint8",
          "name": "",
          "type": "uint8"
        }
      ],
      "stateMutability": "pure",
      "type": "function"
    },
    {
      "inputs": [],
      "name": "faucet",
      "outputs": [],
      "stateMutability": "nonpayable",
      "type": "function"
    },
    {
      "inputs": [
        {
          "internalType": "address",
          "name": "to",
          "type": "address"
        },
        {
          "internalType": "uint256",
          "name": "amount",
          "type": "uint256"
        }
      ],
      "name": "mint",
      "outputs": [],
      "stateMutability": "nonpayable",
      "type": "function"
    },
    {
      "inputs": [],
      "name": "name",
      "outputs": [
        {
          "internalType": "string",
          "name": "",
          "type": "string"
        }
      ],
      "stateMutability": "view",
      "type": "function"
    },
    {
      "inputs": [],
      "name": "owner",
      "outputs": [
        {
          "internalType": "address",
          "name": "",
          "type": "address"
        }
      ],
      "stateMutability": "view",
      "type": "function"
    },
    {
      "inputs": [],
      "name": "renounceOwnership",
      "outputs": [],
      "stateMutability": "nonpayable",
      "type": "function"
    },
    {
      "inputs": [],
      "name": "symbol",
      "outputs": [
        {
          "internalType": "string",
          "name": "",
          "type": "string"
        }
      ],
      "stateMutability": "view",
      "type": "function"
    },
    {
      "inputs": [],
      "name": "totalSupply",
      "outputs": [
        {
          "internalType": "uint256",
          "name": "",
          "type": "uint256"
        }
      ],
      "stateMutability": "view",
      "type": "function"
    },
    {
      "inputs": [
        {
          "internalType": "address",
          "name": "to",
          "type": "address"
        },
        {
          "internalType": "uint256",
          "name": "value",
          "type": "uint256"
        }
      ],
      "name": "transfer",
      "outputs": [
        {
          "internalType": "bool",
          "name": "",
          "type": "bool"
        }
      ],
      "stateMutability": "nonpayable",
      "type": "function"
    },
    {
      "inputs": [
        {
          "internalType": "address",
          "name": "from",
          "type": "address"
        },
        {
          "internalType": "address",
          "name": "to",
          "type": "address"
        },
        {
          "internalType": "uint256",
          "name": "value",
          "type": "uint256"
        }
      ],
      "name": "transferFrom",
      "outputs": [
        {
          "internalType": "bool",
          "name": "",
          "type": "bool"
        }
      ],
      "stateMutability": "nonpayable",
      "type": "function"
    },
    {
      "inputs": [
        {
          "internalType": "address",
          "name": "newOwner",
          "type": "address"
        }
      ],
      "name": "transferOwnership",
      "outputs": [],
      "stateMutability": "nonpayable",
      "type": "function"
    }
  ],
  "bytecode": "0x60806040523480156200001157600080fd5b50336040518060400160405280600981526020016854657374205553444360b81b815250604051806040016040528060048152602001635553444360e01b815250816003908162000063919062000347565b50600462000072828262000347565b5050506001600160a01b038116620000a557604051631e4fbdf760e01b8152600060048201526024015b60405180910390fd5b620000b081620000df565b50620000d933620000c46006600a62000528565b620000d390620f424062000540565b62000131565b62000570565b600580546001600160a01b038381166001600160a01b0319831681179093556040519116919082907f8be0079c531659141344cd1fd0a4f28419497f9722a3daafe3b4186f6b6457e090600090a35050565b6001600160a01b0382166200015d5760405163ec442f0560e01b8152600060048201526024016200009c565b6200016b600083836200016f565b5050565b6001600160a01b0383166200019e5780600260008282546200019291906200055a565b90915550620002129050565b6001600160a01b03831660009081526020819052604090205481811015620001f35760405163391434e360e21b81526001600160a01b038516600482015260248101829052604481018390526064016200009c565b6001600160a01b03841660009081526020819052604090209082900390555b6001600160a01b03821662000230576002805482900390556200024f565b6001600160a01b03821660009081526020819052604090208054820190555b816001600160a01b0316836001600160a01b03167fddf252ad1be2c89b69c2b068fc378daa952ba7f163c4a11628f55a4df523b3ef836040516200029591815260200190565b60405180910390a3505050565b634e487b7160e01b600052604160045260246000fd5b600181811c90821680620002cd57607f821691505b602082108103620002ee57634e487b7160e01b600052602260045260246000fd5b50919050565b601f8211156200034257600081815260208120601f850160051c810160208610156200031d5750805b601f850160051c820191505b818110156200033e5782815560010162000329565b5050505b505050565b81516001600160401b03811115620003635762000363620002a2565b6200037b81620003748454620002b8565b84620002f4565b602080601f831160018114620003b357600084156200039a5750858301515b600019600386901b1c1916600185901b1785556200033e565b600085815260208120601f198616915b82811015620003e457888601518255948401946001909101908401620003c3565b5085821015620004035787850151600019600388901b60f8161c191681555b5050505050600190811b01905550565b634e487b7160e01b600052601160045260246000fd5b600181815b808511156200046a5781600019048211156200044e576200044e62000413565b808516156200045c57918102915b93841c93908002906200042e565b509250929050565b600082620004835750600162000522565b81620004925750600062000522565b8160018114620004ab5760028114620004b657620004d6565b600191505062000522565b60ff841115620004ca57620004ca62000413565b50506001821b62000522565b5060208310610133831016604e8410600b8410161715620004fb575081810a62000522565b62000507838362000429565b80600019048211156200051e576200051e62000413565b0290505b92915050565b60006200053960ff84168362000472565b9392505050565b808202811582820484141762000522576200052262000413565b8082018082111562000522576200052262000413565b610a8f80620005806000396000f3fe608060405234801561001057600080fd5b50600436106100ea5760003560e01c8063715018a61161008c578063a9059cbb11610066578063a9059cbb146101cd578063dd62ed3e146101e0578063de5f72fd14610219578063f2fde38b1461022157600080fd5b8063715018a6146101a25780638da5cb5b146101aa57806395d89b41146101c557600080fd5b806323b872dd116100c857806323b872dd14610142578063313ce5671461015557806340c10f191461016457806370a082311461017957600080fd5b806306fdde03146100ef578063095ea7b31461010d57806318160ddd14610130575b600080fd5b6100f7610234565b60405161010491906107c7565b60405180910390f35b61012061011b366004610831565b6102c6565b6040519015158152602001610104565b6002545b604051908152602001610104565b61012061015036600461085b565b6102e0565b60405160068152602001610104565b610177610172366004610831565b610304565b005b610134610187366004610897565b6001600160a01b031660009081526020819052604090205490565b61017761031a565b6005546040516001600160a01b039091168152602001610104565b6100f761032e565b6101206101db366004610831565b61033d565b6101346101ee3660046108b9565b6001600160a01b03918216600090815260016020908152604080832093909416825291909152205490565b61017761034b565b61017761022f366004610897565b6103e5565b606060038054610243906108ec565b80601f016020809104026020016040519081016040528092919081815260200182805461026f906108ec565b80156102bc5780601f10610291576101008083540402835291602001916102bc565b820191906000526020600020905b81548152906001019060200180831161029f57829003601f168201915b5050505050905090565b6000336102d4818585610423565b60019150505b92915050565b6000336102ee858285610435565b6102f98585856104b4565b506001949350505050565b61030c610513565b6103168282610540565b5050565b610322610513565b61032c6000610576565b565b606060048054610243906108ec565b6000336102d48185856104b4565b6103576006600a610a20565b610363906103e8610a2f565b33600090815260208190526040902054106103c55760405162461bcd60e51b815260206004820152601a60248201527f416c7265616479206861766520656e6f75676820746f6b656e7300000000000060448201526064015b60405180910390fd5b61032c336103d56006600a610a20565b6103e0906064610a2f565b610540565b6103ed610513565b6001600160a01b03811661041757604051631e4fbdf760e01b8152600060048201526024016103bc565b61042081610576565b50565b61043083838360016105c8565b505050565b6001600160a01b038381166000908152600160209081526040808320938616835292905220546000198110156104ae578181101561049f57604051637dc7a0d960e11b81526001600160a01b038416600482015260248101829052604481018390526064016103bc565b6104ae848484840360006105c8565b50505050565b6001600160a01b0383166104de57604051634b637e8f60e11b8152600060048201526024016103bc565b6001600160a01b0382166105085760405163ec442f0560e01b8152600060048201526024016103bc565b61043083838361069d565b6005546001600160a01b0316331461032c5760405163118cdaa760e01b81523360048201526024016103bc565b6001600160a01b03821661056a5760405163ec442f0560e01b8152600060048201526024016103bc565b6103166000838361069d565b600580546001600160a01b038381166001600160a01b0319831681179093556040519116919082907f8be0079c531659141344cd1fd0a4f28419497f9722a3daafe3b4186f6b6457e090600090a35050565b6001600160a01b0384166105f25760405163e602df0560e01b8152600060048201526024016103bc565b6001600160a01b03831661061c57604051634a1406b160e11b8152600060048201526024016103bc565b6001600160a01b03808516600090815260016020908152604080832093871683529290522082905580156104ae57826001600160a01b0316846001600160a01b03167f8c5be1e5ebec7d5bd14f71427d1e84f3dd0314c0f7b2291e5b200ac8c7c3b9258460405161068f91815260200190565b60405180910390a350505050565b6001600160a01b0383166106c85780600260008282546106bd9190610a46565b9091555061073a9050565b6001600160a01b0383166000908152602081905260409020548181101561071b5760405163391434e360e21b81526001600160a01b038516600482015260248101829052604481018390526064016103bc565b6001600160a01b03841660009081526020819052604090209082900390555b6001600160a01b03821661075657600280548290039055610775565b6001600160a01b03821660009081526020819052604090208054820190555b816001600160a01b0316836001600160a01b03167fddf252ad1be2c89b69c2b068fc378daa952ba7f163c4a11628f55a4df523b3ef836040516107ba91815260200190565b60405180910390a3505050565b600060208083528351808285015260005b818110156107f4578581018301518582016040015282016107d8565b506000604082860101526040601f19601f8301168501019250505092915050565b80356001600160a01b038116811461082c57600080fd5b919050565b6000806040838503121561084457600080fd5b61084d83610815565b946020939093013593505050565b60008060006060848603121561087057600080fd5b61087984610815565b925061088760208501610815565b9150604084013590509250925092565b6000602082840312156108a957600080fd5b6108b282610815565b9392505050565b600080604083850312156108cc57600080fd5b6108d583610815565b91506108e360208401610815565b90509250929050565b600181811c9082168061090057607f821691505b60208210810361092057634e487b7160e01b600052602260045260246000fd5b50919050565b634e487b7160e01b600052601160045260246000fd5b600181815b8085111561097757816000190482111561095d5761095d610926565b8085161561096a57918102915b93841c9390800290610941565b509250929050565b60008261098e575060016102da565b8161099b575060006102da565b81600181146109b157600281146109bb576109d7565b60019150506102da565b60ff8411156109cc576109cc610926565b50506001821b6102da565b5060208310610133831016604e8410600b84101617156109fa575081810a6102da565b610a04838361093c565b8060001904821115610a1857610a18610926565b029392505050565b60006108b260ff84168361097f565b80820281158282048414176102da576102da610926565b808201808211156102da576102da61092656fea2646970667358221220526f61ad52bc7779305198feb2ba0c94a540aa6ad19da2384dbbf74754c4e28764736f6c63430008140033",
  "linkReferences": {},
  "deployedLinkReferences": {}
}